{
  "contractName": "MyContract",
  "abi": [
    {
      "constant": true,
      "inputs": [],
      "name": "x",
      "outputs": [
        {
          "name": "",
          "type": "uint256"
        }
      ],
      "payable": false,
      "stateMutability": "view",
      "type": "function"
    },
    {
      "constant": true,
      "inputs": [
        {
          "name": "contractName",
          "type": "string"
        },
        {
          "name": "migrationId",
          "type": "string"
        }
      ],
      "name": "isMigrated",
      "outputs": [
        {
          "name": "",
          "type": "bool"
        }
      ],
      "payable": false,
      "stateMutability": "view",
      "type": "function"
    },
    {
      "anonymous": false,
      "inputs": [
        {
          "indexed": false,
          "name": "contractName",
          "type": "string"
        },
        {
          "indexed": false,
          "name": "migrationId",
          "type": "string"
        }
      ],
      "name": "Migrated",
      "type": "event"
    },
    {
      "constant": false,
      "inputs": [],
      "name": "initialize",
      "outputs": [],
      "payable": false,
      "stateMutability": "nonpayable",
      "type": "function"
    },
    {
      "constant": false,
      "inputs": [
        {
          "name": "_x",
          "type": "uint256"
        }
      ],
      "name": "initialize",
      "outputs": [],
      "payable": false,
      "stateMutability": "nonpayable",
      "type": "function"
    },
    {
      "constant": false,
      "inputs": [],
      "name": "increment",
      "outputs": [],
      "payable": false,
      "stateMutability": "nonpayable",
      "type": "function"
    }
  ],
  "bytecode": "0x608060405234801561001057600080fd5b50610b41806100206000396000f30060806040526004361061006d576000357c0100000000000000000000000000000000000000000000000000000000900463ffffffff1680630c55699c146100725780638129fc1c1461009d578063c0bac1a8146100b4578063d09de08a1461017b578063fe4b84df14610192575b600080fd5b34801561007e57600080fd5b506100876101bf565b6040518082815260200191505060405180910390f35b3480156100a957600080fd5b506100b26101c5565b005b3480156100c057600080fd5b50610161600480360381019080803590602001908201803590602001908080601f0160208091040260200160405190810160405280939291908181526020018383808284378201915050505050509192919290803590602001908201803590602001908080601f0160208091040260200160405190810160405280939291908181526020018383808284378201915050505050509192919290505050610596565b604051808215151515815260200191505060405180910390f35b34801561018757600080fd5b50610190610681565b005b34801561019e57600080fd5b506101bd60048036038101908080359060200190929190505050610693565b005b60015481565b6040805190810160405280600a81526020017f4d696772617461626c65000000000000000000000000000000000000000000008152506040805190810160405280600581526020017f312e322e31000000000000000000000000000000000000000000000000000000815250610270826040805190810160405280600b81526020017f696e697469616c697a6564000000000000000000000000000000000000000000815250610a6c565b61027a8282610a6c565b7fdd117a11c22118c9dee4b5a67ce578bc44529dce21ee0ccc439588fbb9fb4ea38282604051808060200180602001838103835285818151815260200191508051906020019080838360005b838110156102e15780820151818401526020810190506102c6565b50505050905090810190601f16801561030e5780820380516001836020036101000a031916815260200191505b50838103825284818151815260200191508051906020019080838360005b8381101561034757808201518184015260208101905061032c565b50505050905090810190601f1680156103745780820380516001836020036101000a031916815260200191505b5094505050505060405180910390a160016000836040518082805190602001908083835b6020831015156103bd5780518252602082019150602081019050602083039250610398565b6001836020036101000a0380198251168184511680821785525050505050509050019150509081526020016040518091039020826040518082805190602001908083835b6020831015156104265780518252602082019150602081019050602083039250610401565b6001836020036101000a038019825116818451168082178552505050505050905001915050908152602001604051809103902060006101000a81548160ff02191690831515021790555060016000836040518082805190602001908083835b6020831015156104aa5780518252602082019150602081019050602083039250610485565b6001836020036101000a03801982511681845116808217855250505050505090500191505090815260200160405180910390206040805190810160405280600b81526020017f696e697469616c697a65640000000000000000000000000000000000000000008152506040518082805190602001908083835b6020831015156105485780518252602082019150602081019050602083039250610523565b6001836020036101000a038019825116818451168082178552505050505050905001915050908152602001604051809103902060006101000a81548160ff0219169083151502179055505050565b600080836040518082805190602001908083835b6020831015156105cf57805182526020820191506020810190506020830392506105aa565b6001836020036101000a0380198251168184511680821785525050505050509050019150509081526020016040518091039020826040518082805190602001908083835b6020831015156106385780518252602082019150602081019050602083039250610613565b6001836020036101000a038019825116818451168082178552505050505050905001915050908152602001604051809103902060009054906101000a900460ff16905092915050565b60018060008282540192505081905550565b6040805190810160405280600a81526020017f4d79436f6e7472616374000000000000000000000000000000000000000000008152506040805190810160405280600181526020017f300000000000000000000000000000000000000000000000000000000000000081525061073e826040805190810160405280600b81526020017f696e697469616c697a6564000000000000000000000000000000000000000000815250610a6c565b6107488282610a6c565b826001819055507fdd117a11c22118c9dee4b5a67ce578bc44529dce21ee0ccc439588fbb9fb4ea38282604051808060200180602001838103835285818151815260200191508051906020019080838360005b838110156107b657808201518184015260208101905061079b565b50505050905090810190601f1680156107e35780820380516001836020036101000a031916815260200191505b50838103825284818151815260200191508051906020019080838360005b8381101561081c578082015181840152602081019050610801565b50505050905090810190601f1680156108495780820380516001836020036101000a031916815260200191505b5094505050505060405180910390a160016000836040518082805190602001908083835b602083101515610892578051825260208201915060208101905060208303925061086d565b6001836020036101000a0380198251168184511680821785525050505050509050019150509081526020016040518091039020826040518082805190602001908083835b6020831015156108fb57805182526020820191506020810190506020830392506108d6565b6001836020036101000a038019825116818451168082178552505050505050905001915050908152602001604051809103902060006101000a81548160ff02191690831515021790555060016000836040518082805190602001908083835b60208310151561097f578051825260208201915060208101905060208303925061095a565b6001836020036101000a03801982511681845116808217855250505050505090500191505090815260200160405180910390206040805190810160405280600b81526020017f696e697469616c697a65640000000000000000000000000000000000000000008152506040518082805190602001908083835b602083101515610a1d57805182526020820191506020810190506020830392506109f8565b6001836020036101000a038019825116818451168082178552505050505050905001915050908152602001604051809103902060006101000a81548160ff021916908315150217905550505050565b610a768282610596565b151515610b11576040517f08c379a00000000000000000000000000000000000000000000000000000000081526004018080602001828103825260328152602001807f52657175657374656420746172676574206d6967726174696f6e20494420686181526020017f7320616c7265616479206265656e2072756e000000000000000000000000000081525060400191505060405180910390fd5b50505600a165627a7a72305820dc5856ac8dc817be378474064d3b6579cb3d24ff8c2f53c2ff6a239b20b9bd9c0029",
  "source": "import \"zos-lib/contracts/migrations/Migratable.sol\";\n\ncontract MyContract is Migratable {\n  uint256 public x;\n\n  function initialize(uint256 _x) isInitializer(\"MyContract\", \"0\") public {\n    x = _x;\n  }\n\n  function increment() public {\n    x += 1;  \n  }\n}",
  "sourcePath": "/Users/ryoheikomiyama/src/github.com/ryokomy/upgradable-test-zeppelinos/contracts/MyContract.sol",
  "compiler": {
    "name": "solc",
    "version": "0.4.24+commit.e67f0147.Emscripten.clang"
  },
  "schemaVersion": "2.0.1",
  "updatedAt": "2018-09-05T05:53:53.881Z"
}